{
  "contractName": "FileTransfer",
  "abi": [
    {
      "inputs": [],
      "payable": false,
      "stateMutability": "nonpayable",
      "type": "constructor"
    },
    {
      "anonymous": false,
      "inputs": [
        {
          "indexed": false,
          "internalType": "address",
          "name": "from",
          "type": "address"
        },
        {
          "indexed": false,
          "internalType": "string",
          "name": "itemId",
          "type": "string"
        },
        {
          "indexed": false,
          "internalType": "bool",
          "name": "success",
          "type": "bool"
        }
      ],
      "name": "NewHashAdded",
      "type": "event"
    },
    {
      "constant": false,
      "inputs": [],
      "name": "killBlockAuth",
      "outputs": [],
      "payable": false,
      "stateMutability": "nonpayable",
      "type": "function"
    },
    {
      "constant": false,
      "inputs": [
        {
          "internalType": "string",
          "name": "itemId",
          "type": "string"
        },
        {
          "internalType": "string",
          "name": "hashValue",
          "type": "string"
        }
      ],
      "name": "addNewHash",
      "outputs": [
        {
          "internalType": "bool",
          "name": "",
          "type": "bool"
        }
      ],
      "payable": false,
      "stateMutability": "nonpayable",
      "type": "function"
    },
    {
      "constant": true,
      "inputs": [
        {
          "internalType": "string",
          "name": "itemId",
          "type": "string"
        }
      ],
      "name": "getHashValue",
      "outputs": [
        {
          "internalType": "string",
          "name": "",
          "type": "string"
        }
      ],
      "payable": false,
      "stateMutability": "view",
      "type": "function"
    }
  ],
  "bytecode": "0x608060405234801561001057600080fd5b50600080546001600160a01b031916331790556105d3806100326000396000f3fe608060405234801561001057600080fd5b50600436106100415760003560e01c806313937b4f1461004657806329b3249814610050578063bc9d637b14610191575b600080fd5b61004e6102ac565b005b61017d6004803603604081101561006657600080fd5b81019060208101813564010000000081111561008157600080fd5b82018360208201111561009357600080fd5b803590602001918460018302840111640100000000831117156100b557600080fd5b91908080601f016020809104026020016040519081016040528093929190818152602001838380828437600092019190915250929594936020810193503591505064010000000081111561010857600080fd5b82018360208201111561011a57600080fd5b8035906020019184600183028401116401000000008311171561013c57600080fd5b91908080601f0160208091040260200160405190810160405280939291908181526020018383808284376000920191909152509295506102cf945050505050565b604080519115158252519081900360200190f35b610237600480360360208110156101a757600080fd5b8101906020810181356401000000008111156101c257600080fd5b8201836020820111156101d457600080fd5b803590602001918460018302840111640100000000831117156101f657600080fd5b91908080601f01602080910402602001604051908101604052809392919081815260200183838082843760009201919091525092955061040f945050505050565b6040805160208082528351818301528351919283929083019185019080838360005b83811015610271578181015183820152602001610259565b50505050905090810190601f16801561029e5780820380516001836020036101000a031916815260200191505b509250505060405180910390f35b6000546001600160a01b03163314156102cd576000546001600160a01b0316ff5b565b6000816001846040518082805190602001908083835b602083106103045780518252601f1990920191602091820191016102e5565b51815160209384036101000a600019018019909216911617905292019485525060405193849003810190932084516103459591949190910192509050610503565b507fffd4996d4969936388c42b57fe16b59c0f6adbd941c5c66603dd3902f0f3d2b53384600160405180846001600160a01b03166001600160a01b031681526020018060200183151515158152602001828103825284818151815260200191508051906020019080838360005b838110156103ca5781810151838201526020016103b2565b50505050905090810190601f1680156103f75780820380516001836020036101000a031916815260200191505b5094505050505060405180910390a150600192915050565b60606001826040518082805190602001908083835b602083106104435780518252601f199092019160209182019101610424565b518151600019602094850361010090810a820192831692199390931691909117909252949092019687526040805197889003820188208054601f60026001831615909802909501169590950492830182900482028801820190528187529294509250508301828280156104f75780601f106104cc576101008083540402835291602001916104f7565b820191906000526020600020905b8154815290600101906020018083116104da57829003601f168201915b50505050509050919050565b828054600181600116156101000203166002900490600052602060002090601f016020900481019282601f1061054457805160ff1916838001178555610571565b82800160010185558215610571579182015b82811115610571578251825591602001919060010190610556565b5061057d929150610581565b5090565b61059b91905b8082111561057d5760008155600101610587565b9056fea265627a7a72315820519fee95aa725ff921f3b32167d8dc710862666872f678cdb9c722d7f954183564736f6c63430005100032",
  "source": "pragma solidity >=0.4.22 <0.7.0;\r\n\r\ncontract FileTransfer {\r\n\r\n    address payable owner;\r\n    mapping ( string => string ) hash_values;\r\n\r\n    event NewHashAdded(address from, string itemId, bool success);\r\n\r\n    constructor() public {\r\n        owner = msg.sender;\r\n    }\r\n\r\n    function killBlockAuth() public {\r\n        if(msg.sender == owner){\r\n            selfdestruct(owner);\r\n        }\r\n    }\r\n\r\n    function addNewHash(string memory itemId, string memory hashValue) public returns (bool) {\r\n        hash_values[itemId] = hashValue;\r\n        emit NewHashAdded(msg.sender, itemId, true);\r\n        return true;\r\n    }\r\n\r\n    function getHashValue(string memory itemId) public view returns (string memory) {\r\n        return hash_values[itemId];\r\n    }\r\n}",
  "sourcePath": "C:\\Users\\Chamika\\Documents\\Chamika Dimantha\\Projects\\Research Projects\\UK - Vamsi & Archana\\UK - File Transfer System - Archana\\Development\\HashStoreDApp\\contracts\\FileTransferContract.sol",
  "compiler": {
    "name": "solc",
    "version": "0.5.16+commit.9c3226ce.Emscripten.clang"
  },
  "schemaVersion": "3.4.16",
  "updatedAt": "2024-05-08T19:47:40.259Z",
  "networkType": "ethereum",
  "devdoc": {
    "methods": {}
  },
  "userdoc": {
    "methods": {}
  }
}